:020000020000FC
:040000000C947200EA
:040050000C943E01CD
:1000E400442735E61FEF1DBF11E21EBFD2E0C8E46E
:1000F400F3E0ECE60E94BE00D2E0CAE5F3E0EEE7EE
:100104000E94BE0012E01F9318E41F9312E01F9395
:100114001CE61F930E94FC001F911F911F911F91C9
:1001240012E01F931AE51F9312E01F931EE71F931B
:100134000E94FC001F911F911F911F91D2E0C0E00B
:10014400F3E0EAE50E94BE00D2E0C2E10E94BE00F4
:10015400D1E2C6E312E01A9310E01A9312E01A9364
:1001640012E11A930E94CF001991199119911991D2
:100174000E94200100C0FFCFFF93EF93DF93CF9342
:100184001F931591103011F01993FBCF18831F9111
:10019400CF91DF91EF91FF910895DF93CF93FF9378
:1001A400EF93BF93AF931F93FA93EA93BA93AA93EF
:1001B4001A93F885EF81B2E0A0E91191103011F0A3
:1001C4001D93FBCF1D93FE81ED81B2E0A2EA119154
:1001D400103011F01D93FBCF1D931991A991B99182
:1001E400E991F9911F91AF91BF91EF91FF91CF9157
:1001F400DF910895FF93EF93DF93CF93BF93AF9372
:100204000F933F93DEB7CDB7FF85EE85BD85AC85F3
:1002140000270F930191003011F00F93FBCF3F9112
:10022400303011F03D93FBCF3D933F910F91AF914F
:10023400BF91CF91DF91EF91FF9108950F9300E06B
:100244000093800001E00093810001E000936F00BF
:100254000FEF0093850000E3009384000F917894DE
:1002640008953F93132F343008F403C034503430CE
:10027400E8F7132F3F910895DF93CF930F931F93C4
:100284002F9300913F000F930FEF0093850000E33D
:1002940000938400D1E2CEEB353651F03A3019F0B8
:1002A400313009F00FC01F9311E041271F910AC09C
:1002B40031E012E01A9310E01A9312E01A9318E452
:1002C4001A9336C00E94330103C0103051F000C0AD
:1002D400113081F000C01230B1F000C01330E1F0F1
:1002E400F4CF12E01A931CE61A9312E01A931EE755
:1002F4001A931BC012E01A931EE71A9312E01A9382
:1003040018E41A9312C012E01A9318E41A9312E034
:100314001A931AE51A9309C012E01A931AE51A936C
:1003240012E01A931CE61A9300C0413019F000C081
:10033400339502C03A9500C00E94CF0019911991DB
:10034400199119910F9100933F002F911F910F91D3
:10035400CF91DF9118952A2A2A2A2A2A2A2A2A2A78
:100364002A2A2A2A2A2A2A0043616D65726F6E207E
:100374004C696E647361792020004C6561726E690A
:0C0384006E6720435343203233302000CA
:00000001FF
